{
  "contractName": "WandaToken",
  "abi": [
    {
      "inputs": [],
      "payable": false,
      "stateMutability": "nonpayable",
      "type": "constructor"
    },
    {
      "constant": true,
      "inputs": [],
      "name": "totalSupply",
      "outputs": [
        {
          "internalType": "uint256",
          "name": "",
          "type": "uint256"
        }
      ],
      "payable": false,
      "stateMutability": "view",
      "type": "function"
    }
  ],
  "bytecode": "0x6080604052348015600f57600080fd5b50620f42406000819055506084806100286000396000f3fe6080604052348015600f57600080fd5b506004361060285760003560e01c806318160ddd14602d575b600080fd5b60336049565b6040518082815260200191505060405180910390f35b6000548156fea265627a7a723158207d9245f2e9e5082d2294675d8c5c42c524b922013c759d095820fc84b0ec522264736f6c63430005100032",
  "source": "// SPDX-License-Identifier: MIT\r\npragma solidity >=0.4.22 <0.9.0;\r\n\r\ncontract WandaToken {\r\n    // We need:\r\n    // -Constructor\r\n    // -Set the total number of tokens\r\n    // -Read the total number of tokens\r\n\r\n    uint256 public totalSupply;\r\n    constructor() public {\r\n        totalSupply = 1000000;\r\n    }\r\n}\r\n\r\n",
  "sourcePath": "C:\\Users\\wanda\\test-truffle\\contracts\\WandaToken.sol",
  "compiler": {
    "name": "solc",
    "version": "0.5.16+commit.9c3226ce.Emscripten.clang"
  },
  "schemaVersion": "3.4.3",
  "updatedAt": "2021-09-15T20:54:33.410Z",
  "networkType": "ethereum",
  "devdoc": {
    "methods": {}
  },
  "userdoc": {
    "methods": {}
  }
}